{
  "contractName": "ARIContract",
  "abi": [
    {
      "inputs": [],
      "payable": false,
      "stateMutability": "nonpayable",
      "type": "constructor"
    },
    {
      "constant": false,
      "inputs": [
        {
          "internalType": "uint256",
          "name": "house_id",
          "type": "uint256"
        }
      ],
      "name": "createHouse",
      "outputs": [
        {
          "internalType": "bool",
          "name": "",
          "type": "bool"
        }
      ],
      "payable": false,
      "stateMutability": "nonpayable",
      "type": "function"
    },
    {
      "constant": false,
      "inputs": [
        {
          "internalType": "uint256",
          "name": "house_id",
          "type": "uint256"
        }
      ],
      "name": "deleteHouse",
      "outputs": [
        {
          "internalType": "bool",
          "name": "",
          "type": "bool"
        }
      ],
      "payable": false,
      "stateMutability": "nonpayable",
      "type": "function"
    },
    {
      "constant": true,
      "inputs": [
        {
          "internalType": "address",
          "name": "queryAddress",
          "type": "address"
        }
      ],
      "name": "getUserByAddress",
      "outputs": [
        {
          "internalType": "string",
          "name": "",
          "type": "string"
        }
      ],
      "payable": false,
      "stateMutability": "view",
      "type": "function"
    },
    {
      "constant": true,
      "inputs": [
        {
          "internalType": "uint256",
          "name": "",
          "type": "uint256"
        },
        {
          "internalType": "bytes32",
          "name": "",
          "type": "bytes32"
        }
      ],
      "name": "houseAriMap",
      "outputs": [
        {
          "internalType": "uint256",
          "name": "from_date",
          "type": "uint256"
        },
        {
          "internalType": "uint256",
          "name": "to_date",
          "type": "uint256"
        },
        {
          "internalType": "int256",
          "name": "price",
          "type": "int256"
        },
        {
          "internalType": "bool",
          "name": "available",
          "type": "bool"
        },
        {
          "internalType": "uint256",
          "name": "block_timestamp",
          "type": "uint256"
        },
        {
          "internalType": "address",
          "name": "modifying_entity",
          "type": "address"
        }
      ],
      "payable": false,
      "stateMutability": "view",
      "type": "function"
    },
    {
      "constant": true,
      "inputs": [
        {
          "internalType": "uint256",
          "name": "",
          "type": "uint256"
        },
        {
          "internalType": "uint256",
          "name": "",
          "type": "uint256"
        }
      ],
      "name": "houseArikeyMap",
      "outputs": [
        {
          "internalType": "bytes32",
          "name": "",
          "type": "bytes32"
        }
      ],
      "payable": false,
      "stateMutability": "view",
      "type": "function"
    },
    {
      "constant": true,
      "inputs": [
        {
          "internalType": "uint256",
          "name": "",
          "type": "uint256"
        }
      ],
      "name": "house_owner_map",
      "outputs": [
        {
          "internalType": "address",
          "name": "",
          "type": "address"
        }
      ],
      "payable": false,
      "stateMutability": "view",
      "type": "function"
    },
    {
      "constant": false,
      "inputs": [
        {
          "internalType": "string",
          "name": "_name",
          "type": "string"
        },
        {
          "internalType": "enum UserContract.accessor",
          "name": "userType",
          "type": "uint8"
        }
      ],
      "name": "onboardUser",
      "outputs": [
        {
          "internalType": "string",
          "name": "",
          "type": "string"
        }
      ],
      "payable": false,
      "stateMutability": "nonpayable",
      "type": "function"
    },
    {
      "constant": true,
      "inputs": [
        {
          "internalType": "address",
          "name": "",
          "type": "address"
        }
      ],
      "name": "users",
      "outputs": [
        {
          "internalType": "string",
          "name": "name",
          "type": "string"
        },
        {
          "internalType": "enum UserContract.accessor",
          "name": "accessorType",
          "type": "uint8"
        }
      ],
      "payable": false,
      "stateMutability": "view",
      "type": "function"
    },
    {
      "constant": true,
      "inputs": [
        {
          "internalType": "uint256",
          "name": "houseId",
          "type": "uint256"
        }
      ],
      "name": "getARICount",
      "outputs": [
        {
          "internalType": "uint256",
          "name": "",
          "type": "uint256"
        }
      ],
      "payable": false,
      "stateMutability": "view",
      "type": "function"
    },
    {
      "constant": false,
      "inputs": [
        {
          "internalType": "uint256",
          "name": "house_id",
          "type": "uint256"
        },
        {
          "internalType": "uint256",
          "name": "_from_date",
          "type": "uint256"
        },
        {
          "internalType": "uint256",
          "name": "_to_date",
          "type": "uint256"
        },
        {
          "internalType": "int256",
          "name": "_price",
          "type": "int256"
        }
      ],
      "name": "createARIForHouseByRange",
      "outputs": [
        {
          "internalType": "bytes32",
          "name": "",
          "type": "bytes32"
        }
      ],
      "payable": false,
      "stateMutability": "nonpayable",
      "type": "function"
    },
    {
      "constant": false,
      "inputs": [
        {
          "internalType": "uint256",
          "name": "house_id",
          "type": "uint256"
        },
        {
          "internalType": "uint256",
          "name": "_from_date",
          "type": "uint256"
        },
        {
          "internalType": "uint256",
          "name": "_to_date",
          "type": "uint256"
        }
      ],
      "name": "blockARI",
      "outputs": [
        {
          "internalType": "bytes32",
          "name": "",
          "type": "bytes32"
        }
      ],
      "payable": false,
      "stateMutability": "nonpayable",
      "type": "function"
    },
    {
      "constant": false,
      "inputs": [
        {
          "internalType": "uint256",
          "name": "house_id",
          "type": "uint256"
        },
        {
          "internalType": "uint256",
          "name": "_from_date",
          "type": "uint256"
        },
        {
          "internalType": "uint256",
          "name": "_to_date",
          "type": "uint256"
        }
      ],
      "name": "releaseARI",
      "outputs": [
        {
          "internalType": "bytes32",
          "name": "",
          "type": "bytes32"
        }
      ],
      "payable": false,
      "stateMutability": "nonpayable",
      "type": "function"
    }
  ],
  "bytecode": "0x60806040523480156200001157600080fd5b506000600190506200005f6040518060400160405280600b81526020017f6e65775f706172746e6572000000000000000000000000000000000000000000815250826200009a60201b60201c565b506200007260016200032e60201b60201c565b506200009260016360bdfe7d6360c1f2fd6101006200063360201b60201c565b505062000c08565b606060006002811115620000aa57fe5b6002811115620000b657fe5b6000803373ffffffffffffffffffffffffffffffffffffffff1673ffffffffffffffffffffffffffffffffffffffff16815260200190815260200160002060010160009054906101000a900460ff1660028111156200011157fe5b1462000185576040517f08c379a00000000000000000000000000000000000000000000000000000000081526004018080602001828103825260178152602001807f3430303a205573657220616c726561647920657869747300000000000000000081525060200191505060405180910390fd5b6200018f62000ae5565b8381600001819052508281602001906002811115620001aa57fe5b90816002811115620001b857fe5b81525050806000803373ffffffffffffffffffffffffffffffffffffffff1673ffffffffffffffffffffffffffffffffffffffff16815260200190815260200160002060008201518160000190805190602001906200021992919062000b0b565b5060208201518160010160006101000a81548160ff021916908360028111156200023f57fe5b02179055509050506000803373ffffffffffffffffffffffffffffffffffffffff1673ffffffffffffffffffffffffffffffffffffffff1681526020019081526020016000206000018054600181600116156101000203166002900480601f016020809104026020016040519081016040528092919081815260200182805460018160011615610100020316600290048015620003205780601f10620002f45761010080835404028352916020019162000320565b820191906000526020600020905b8154815290600101906020018083116200030257829003601f168201915b505050505091505092915050565b60008060028111156200033d57fe5b60028111156200034957fe5b6000803373ffffffffffffffffffffffffffffffffffffffff1673ffffffffffffffffffffffffffffffffffffffff16815260200190815260200160002060010160009054906101000a900460ff166002811115620003a457fe5b141562000419576040517f08c379a00000000000000000000000000000000000000000000000000000000081526004018080602001828103825260108152602001807f3430333a556e617574686f72697a65640000000000000000000000000000000081525060200191505060405180910390fd5b600160028111156200042757fe5b60028111156200043357fe5b6000803373ffffffffffffffffffffffffffffffffffffffff1673ffffffffffffffffffffffffffffffffffffffff16815260200190815260200160002060010160009054906101000a900460ff1660028111156200048e57fe5b1462000502576040517f08c379a00000000000000000000000000000000000000000000000000000000081526004018080602001828103825260108152602001807f3430333a556e617574686f72697a65640000000000000000000000000000000081525060200191505060405180910390fd5b600073ffffffffffffffffffffffffffffffffffffffff166001600084815260200190815260200160002060009054906101000a900473ffffffffffffffffffffffffffffffffffffffff1673ffffffffffffffffffffffffffffffffffffffff1614620005d8576040517f08c379a000000000000000000000000000000000000000000000000000000000815260040180806020018281038252601a8152602001807f3430303a20486f75736520616c7265616479206578697374732100000000000081525060200191505060405180910390fd5b336001600084815260200190815260200160002060006101000a81548173ffffffffffffffffffffffffffffffffffffffff021916908373ffffffffffffffffffffffffffffffffffffffff16021790555060019050919050565b60008060028111156200064257fe5b60028111156200064e57fe5b6000803373ffffffffffffffffffffffffffffffffffffffff1673ffffffffffffffffffffffffffffffffffffffff16815260200190815260200160002060010160009054906101000a900460ff166002811115620006a957fe5b14156200071e576040517f08c379a00000000000000000000000000000000000000000000000000000000081526004018080602001828103825260108152602001807f3430333a556e617574686f72697a65640000000000000000000000000000000081525060200191505060405180910390fd5b600160028111156200072c57fe5b60028111156200073857fe5b6000803373ffffffffffffffffffffffffffffffffffffffff1673ffffffffffffffffffffffffffffffffffffffff16815260200190815260200160002060010160009054906101000a900460ff1660028111156200079357fe5b1462000807576040517f08c379a00000000000000000000000000000000000000000000000000000000081526004018080602001828103825260108152602001807f3430333a556e617574686f72697a65640000000000000000000000000000000081525060200191505060405180910390fd5b600073ffffffffffffffffffffffffffffffffffffffff166001600087815260200190815260200160002060009054906101000a900473ffffffffffffffffffffffffffffffffffffffff1673ffffffffffffffffffffffffffffffffffffffff161415620008de576040517f08c379a00000000000000000000000000000000000000000000000000000000081526004018080602001828103825260118152602001807f486f757365206e6f74206372656174656400000000000000000000000000000081525060200191505060405180910390fd5b620008e862000b92565b848160000181815250508381602001818152505082816040018181525050600181606001901515908115158152505060006002868660405160200180838152602001828152602001925050506040516020818303038152906040526040518082805190602001908083835b6020831062000978578051825260208201915060208101905060208303925062000953565b6001836020036101000a038019825116818451168082178552505050505050905001915050602060405180830381855afa158015620009bb573d6000803e3d6000fd5b5050506040513d6020811015620009d157600080fd5b810190808051906020019092919050505090508160026000898152602001908152602001600020600083815260200190815260200160002060008201518160000155602082015181600101556040820151816002015560608201518160030160006101000a81548160ff0219169083151502179055506080820151816004015560a08201518160050160006101000a81548173ffffffffffffffffffffffffffffffffffffffff021916908373ffffffffffffffffffffffffffffffffffffffff160217905550905050600360008881526020019081526020016000208190806001815401808255809150509060018203906000526020600020016000909192909190915055508092505050949350505050565b6040518060400160405280606081526020016000600281111562000b0557fe5b81525090565b828054600181600116156101000203166002900490600052602060002090601f016020900481019282601f1062000b4e57805160ff191683800117855562000b7f565b8280016001018555821562000b7f579182015b8281111562000b7e57825182559160200191906001019062000b61565b5b50905062000b8e919062000be0565b5090565b6040518060c0016040528060008152602001600081526020016000815260200160001515815260200160008152602001600073ffffffffffffffffffffffffffffffffffffffff1681525090565b62000c0591905b8082111562000c0157600081600090555060010162000be7565b5090565b90565b6124508062000c186000396000f3fe608060405234801561001057600080fd5b50600436106100b45760003560e01c806369c212f61161007157806369c212f6146103f95780636c12606f146104b65780638071d984146104f8578063a87430ba1461054e578063bed76bb314610620578063e0d5690c14610666576100b4565b8063035adf3b146100b957806334d7fbfd146101fa57806338a8652014610299578063431b5296146103075780634c9b56fd146103535780635d12154f14610399575b600080fd5b61017f600480360360408110156100cf57600080fd5b81019080803590602001906401000000008111156100ec57600080fd5b8201836020820111156100fe57600080fd5b8035906020019184600183028401116401000000008311171561012057600080fd5b91908080601f016020809104026020016040519081016040528093929190818152602001838380828437600081840152601f19601f820116905080830192505050505050509192919290803560ff1690602001909291905050506106bc565b6040518080602001828103825283818151815260200191508051906020019080838360005b838110156101bf5780820151818401526020810190506101a4565b50505050905090810190601f1680156101ec5780820380516001836020036101000a031916815260200191505b509250505060405180910390f35b6102306004803603604081101561021057600080fd5b810190808035906020019092919080359060200190929190505050610941565b60405180878152602001868152602001858152602001841515151581526020018381526020018273ffffffffffffffffffffffffffffffffffffffff1673ffffffffffffffffffffffffffffffffffffffff168152602001965050505050505060405180910390f35b6102c5600480360360208110156102af57600080fd5b81019080803590602001909291905050506109b7565b604051808273ffffffffffffffffffffffffffffffffffffffff1673ffffffffffffffffffffffffffffffffffffffff16815260200191505060405180910390f35b61033d6004803603604081101561031d57600080fd5b8101908080359060200190929190803590602001909291905050506109ea565b6040518082815260200191505060405180910390f35b61037f6004803603602081101561036957600080fd5b8101908080359060200190929190505050610a18565b604051808215151515815260200191505060405180910390f35b6103e3600480360360808110156103af57600080fd5b8101908080359060200190929190803590602001909291908035906020019092919080359060200190929190505050610d12565b6040518082815260200191505060405180910390f35b61043b6004803603602081101561040f57600080fd5b81019080803573ffffffffffffffffffffffffffffffffffffffff1690602001909291905050506111b5565b6040518080602001828103825283818151815260200191508051906020019080838360005b8381101561047b578082015181840152602081019050610460565b50505050905090810190601f1680156104a85780820380516001836020036101000a031916815260200191505b509250505060405180910390f35b6104e2600480360360208110156104cc57600080fd5b8101908080359060200190929190505050611434565b6040518082815260200191505060405180910390f35b6105386004803603606081101561050e57600080fd5b81019080803590602001909291908035906020019092919080359060200190929190505050611454565b6040518082815260200191505060405180910390f35b6105906004803603602081101561056457600080fd5b81019080803573ffffffffffffffffffffffffffffffffffffffff1690602001909291905050506119d0565b60405180806020018360028111156105a457fe5b60ff168152602001828103825284818151815260200191508051906020019080838360005b838110156105e45780820151818401526020810190506105c9565b50505050905090810190601f1680156106115780820380516001836020036101000a031916815260200191505b50935050505060405180910390f35b61064c6004803603602081101561063657600080fd5b8101908080359060200190929190505050611a99565b604051808215151515815260200191505060405180910390f35b6106a66004803603606081101561067c57600080fd5b81019080803590602001909291908035906020019092919080359060200190929190505050611d95565b6040518082815260200191505060405180910390f35b6060600060028111156106cb57fe5b60028111156106d657fe5b6000803373ffffffffffffffffffffffffffffffffffffffff1673ffffffffffffffffffffffffffffffffffffffff16815260200190815260200160002060010160009054906101000a900460ff16600281111561073057fe5b146107a3576040517f08c379a00000000000000000000000000000000000000000000000000000000081526004018080602001828103825260178152602001807f3430303a205573657220616c726561647920657869747300000000000000000081525060200191505060405180910390fd5b6107ab6122e1565b83816000018190525082816020019060028111156107c557fe5b908160028111156107d257fe5b81525050806000803373ffffffffffffffffffffffffffffffffffffffff1673ffffffffffffffffffffffffffffffffffffffff1681526020019081526020016000206000820151816000019080519060200190610831929190612306565b5060208201518160010160006101000a81548160ff0219169083600281111561085657fe5b02179055509050506000803373ffffffffffffffffffffffffffffffffffffffff1673ffffffffffffffffffffffffffffffffffffffff1681526020019081526020016000206000018054600181600116156101000203166002900480601f0160208091040260200160405190810160405280929190818152602001828054600181600116156101000203166002900480156109335780601f1061090857610100808354040283529160200191610933565b820191906000526020600020905b81548152906001019060200180831161091657829003601f168201915b505050505091505092915050565b6002602052816000526040600020602052806000526040600020600091509150508060000154908060010154908060020154908060030160009054906101000a900460ff16908060040154908060050160009054906101000a900473ffffffffffffffffffffffffffffffffffffffff16905086565b60016020528060005260406000206000915054906101000a900473ffffffffffffffffffffffffffffffffffffffff1681565b60036020528160005260406000208181548110610a0357fe5b90600052602060002001600091509150505481565b6000806002811115610a2657fe5b6002811115610a3157fe5b6000803373ffffffffffffffffffffffffffffffffffffffff1673ffffffffffffffffffffffffffffffffffffffff16815260200190815260200160002060010160009054906101000a900460ff166002811115610a8b57fe5b1415610aff576040517f08c379a00000000000000000000000000000000000000000000000000000000081526004018080602001828103825260108152602001807f3430333a556e617574686f72697a65640000000000000000000000000000000081525060200191505060405180910390fd5b60016002811115610b0c57fe5b6002811115610b1757fe5b6000803373ffffffffffffffffffffffffffffffffffffffff1673ffffffffffffffffffffffffffffffffffffffff16815260200190815260200160002060010160009054906101000a900460ff166002811115610b7157fe5b14610be4576040517f08c379a00000000000000000000000000000000000000000000000000000000081526004018080602001828103825260108152602001807f3430333a556e617574686f72697a65640000000000000000000000000000000081525060200191505060405180910390fd5b600073ffffffffffffffffffffffffffffffffffffffff166001600084815260200190815260200160002060009054906101000a900473ffffffffffffffffffffffffffffffffffffffff1673ffffffffffffffffffffffffffffffffffffffff161415610cba576040517f08c379a00000000000000000000000000000000000000000000000000000000081526004018080602001828103825260158152602001807f3430343a20486f757365206e6f7420666f756e6421000000000000000000000081525060200191505060405180910390fd5b60006001600084815260200190815260200160002060006101000a81548173ffffffffffffffffffffffffffffffffffffffff021916908373ffffffffffffffffffffffffffffffffffffffff160217905550919050565b6000806002811115610d2057fe5b6002811115610d2b57fe5b6000803373ffffffffffffffffffffffffffffffffffffffff1673ffffffffffffffffffffffffffffffffffffffff16815260200190815260200160002060010160009054906101000a900460ff166002811115610d8557fe5b1415610df9576040517f08c379a00000000000000000000000000000000000000000000000000000000081526004018080602001828103825260108152602001807f3430333a556e617574686f72697a65640000000000000000000000000000000081525060200191505060405180910390fd5b60016002811115610e0657fe5b6002811115610e1157fe5b6000803373ffffffffffffffffffffffffffffffffffffffff1673ffffffffffffffffffffffffffffffffffffffff16815260200190815260200160002060010160009054906101000a900460ff166002811115610e6b57fe5b14610ede576040517f08c379a00000000000000000000000000000000000000000000000000000000081526004018080602001828103825260108152602001807f3430333a556e617574686f72697a65640000000000000000000000000000000081525060200191505060405180910390fd5b600073ffffffffffffffffffffffffffffffffffffffff166001600087815260200190815260200160002060009054906101000a900473ffffffffffffffffffffffffffffffffffffffff1673ffffffffffffffffffffffffffffffffffffffff161415610fb4576040517f08c379a00000000000000000000000000000000000000000000000000000000081526004018080602001828103825260118152602001807f486f757365206e6f74206372656174656400000000000000000000000000000081525060200191505060405180910390fd5b610fbc612386565b848160000181815250508381602001818152505082816040018181525050600181606001901515908115158152505060006002868660405160200180838152602001828152602001925050506040516020818303038152906040526040518082805190602001908083835b6020831061104a5780518252602082019150602081019050602083039250611027565b6001836020036101000a038019825116818451168082178552505050505050905001915050602060405180830381855afa15801561108c573d6000803e3d6000fd5b5050506040513d60208110156110a157600080fd5b810190808051906020019092919050505090508160026000898152602001908152602001600020600083815260200190815260200160002060008201518160000155602082015181600101556040820151816002015560608201518160030160006101000a81548160ff0219169083151502179055506080820151816004015560a08201518160050160006101000a81548173ffffffffffffffffffffffffffffffffffffffff021916908373ffffffffffffffffffffffffffffffffffffffff160217905550905050600360008881526020019081526020016000208190806001815401808255809150509060018203906000526020600020016000909192909190915055508092505050949350505050565b6060600060028111156111c457fe5b60028111156111cf57fe5b6000803373ffffffffffffffffffffffffffffffffffffffff1673ffffffffffffffffffffffffffffffffffffffff16815260200190815260200160002060010160009054906101000a900460ff16600281111561122957fe5b141561129d576040517f08c379a00000000000000000000000000000000000000000000000000000000081526004018080602001828103825260108152602001807f3430333a556e617574686f72697a65640000000000000000000000000000000081525060200191505060405180910390fd5b600060028111156112aa57fe5b60028111156112b557fe5b6000808473ffffffffffffffffffffffffffffffffffffffff1673ffffffffffffffffffffffffffffffffffffffff16815260200190815260200160002060010160009054906101000a900460ff16600281111561130f57fe5b1415611352576040518060400160405280600481526020017f6e6f6e6500000000000000000000000000000000000000000000000000000000815250905061142f565b6000808373ffffffffffffffffffffffffffffffffffffffff1673ffffffffffffffffffffffffffffffffffffffff1681526020019081526020016000206000018054600181600116156101000203166002900480601f0160208091040260200160405190810160405280929190818152602001828054600181600116156101000203166002900480156114275780601f106113fc57610100808354040283529160200191611427565b820191906000526020600020905b81548152906001019060200180831161140a57829003601f168201915b505050505090505b919050565b600060036000838152602001908152602001600020805490509050919050565b600080600281111561146257fe5b600281111561146d57fe5b6000803373ffffffffffffffffffffffffffffffffffffffff1673ffffffffffffffffffffffffffffffffffffffff16815260200190815260200160002060010160009054906101000a900460ff1660028111156114c757fe5b141561153b576040517f08c379a00000000000000000000000000000000000000000000000000000000081526004018080602001828103825260108152602001807f3430333a556e617574686f72697a65640000000000000000000000000000000081525060200191505060405180910390fd5b60006002848460405160200180838152602001828152602001925050506040516020818303038152906040526040518082805190602001908083835b6020831061159a5780518252602082019150602081019050602083039250611577565b6001836020036101000a038019825116818451168082178552505050505050905001915050602060405180830381855afa1580156115dc573d6000803e3d6000fd5b5050506040513d60208110156115f157600080fd5b81019080805190602001909291905050509050600073ffffffffffffffffffffffffffffffffffffffff166001600087815260200190815260200160002060009054906101000a900473ffffffffffffffffffffffffffffffffffffffff1673ffffffffffffffffffffffffffffffffffffffff1614156116da576040517f08c379a00000000000000000000000000000000000000000000000000000000081526004018080602001828103825260158152602001807f3430343a486f757365206e6f742063726561746564000000000000000000000081525060200191505060405180910390fd5b6000600260008781526020019081526020016000206000838152602001908152602001600020600001541415611778576040517f08c379a00000000000000000000000000000000000000000000000000000000081526004018080602001828103825260138152602001807f3430343a52616e6765206e6f7420666f756e640000000000000000000000000081525060200191505060405180910390fd5b6000151560026000878152602001908152602001600020600083815260200190815260200160002060030160009054906101000a900460ff16151514611826576040517f08c379a00000000000000000000000000000000000000000000000000000000081526004018080602001828103825260188152602001807f3430343a52616e6765206973206e6f7420626c6f636b6564000000000000000081525060200191505060405180910390fd5b3373ffffffffffffffffffffffffffffffffffffffff1660026000878152602001908152602001600020600083815260200190815260200160002060050160009054906101000a900473ffffffffffffffffffffffffffffffffffffffff1673ffffffffffffffffffffffffffffffffffffffff16146118f1576040517f08c379a00000000000000000000000000000000000000000000000000000000081526004018080602001828103825260228152602001806123fa6022913960400191505060405180910390fd5b600160026000878152602001908152602001600020600083815260200190815260200160002060030160006101000a81548160ff021916908315150217905550600060026000878152602001908152602001600020600083815260200190815260200160002060040181905550600060026000878152602001908152602001600020600083815260200190815260200160002060050160006101000a81548173ffffffffffffffffffffffffffffffffffffffff021916908373ffffffffffffffffffffffffffffffffffffffff160217905550809150509392505050565b6000602052806000526040600020600091509050806000018054600181600116156101000203166002900480601f016020809104026020016040519081016040528092919081815260200182805460018160011615610100020316600290048015611a7c5780601f10611a5157610100808354040283529160200191611a7c565b820191906000526020600020905b815481529060010190602001808311611a5f57829003601f168201915b5050505050908060010160009054906101000a900460ff16905082565b6000806002811115611aa757fe5b6002811115611ab257fe5b6000803373ffffffffffffffffffffffffffffffffffffffff1673ffffffffffffffffffffffffffffffffffffffff16815260200190815260200160002060010160009054906101000a900460ff166002811115611b0c57fe5b1415611b80576040517f08c379a00000000000000000000000000000000000000000000000000000000081526004018080602001828103825260108152602001807f3430333a556e617574686f72697a65640000000000000000000000000000000081525060200191505060405180910390fd5b60016002811115611b8d57fe5b6002811115611b9857fe5b6000803373ffffffffffffffffffffffffffffffffffffffff1673ffffffffffffffffffffffffffffffffffffffff16815260200190815260200160002060010160009054906101000a900460ff166002811115611bf257fe5b14611c65576040517f08c379a00000000000000000000000000000000000000000000000000000000081526004018080602001828103825260108152602001807f3430333a556e617574686f72697a65640000000000000000000000000000000081525060200191505060405180910390fd5b600073ffffffffffffffffffffffffffffffffffffffff166001600084815260200190815260200160002060009054906101000a900473ffffffffffffffffffffffffffffffffffffffff1673ffffffffffffffffffffffffffffffffffffffff1614611d3a576040517f08c379a000000000000000000000000000000000000000000000000000000000815260040180806020018281038252601a8152602001807f3430303a20486f75736520616c7265616479206578697374732100000000000081525060200191505060405180910390fd5b336001600084815260200190815260200160002060006101000a81548173ffffffffffffffffffffffffffffffffffffffff021916908373ffffffffffffffffffffffffffffffffffffffff16021790555060019050919050565b6000806002811115611da357fe5b6002811115611dae57fe5b6000803373ffffffffffffffffffffffffffffffffffffffff1673ffffffffffffffffffffffffffffffffffffffff16815260200190815260200160002060010160009054906101000a900460ff166002811115611e0857fe5b1415611e7c576040517f08c379a00000000000000000000000000000000000000000000000000000000081526004018080602001828103825260108152602001807f3430333a556e617574686f72697a65640000000000000000000000000000000081525060200191505060405180910390fd5b60006002848460405160200180838152602001828152602001925050506040516020818303038152906040526040518082805190602001908083835b60208310611edb5780518252602082019150602081019050602083039250611eb8565b6001836020036101000a038019825116818451168082178552505050505050905001915050602060405180830381855afa158015611f1d573d6000803e3d6000fd5b5050506040513d6020811015611f3257600080fd5b81019080805190602001909291905050509050600073ffffffffffffffffffffffffffffffffffffffff166001600087815260200190815260200160002060009054906101000a900473ffffffffffffffffffffffffffffffffffffffff1673ffffffffffffffffffffffffffffffffffffffff16141561201b576040517f08c379a00000000000000000000000000000000000000000000000000000000081526004018080602001828103825260158152602001807f3430343a486f757365206e6f742063726561746564000000000000000000000081525060200191505060405180910390fd5b60006002600087815260200190815260200160002060008381526020019081526020016000206000015414156120b9576040517f08c379a00000000000000000000000000000000000000000000000000000000081526004018080602001828103825260138152602001807f3430343a52616e6765206e6f7420666f756e640000000000000000000000000081525060200191505060405180910390fd5b6000151560026000878152602001908152602001600020600083815260200190815260200160002060030160009054906101000a900460ff1615151415612168576040517f08c379a000000000000000000000000000000000000000000000000000000000815260040180806020018281038252601a8152602001807f3430343a52616e6765206973206e6f7420617661696c61626c6500000000000081525060200191505060405180910390fd5b426002600087815260200190815260200160002060008381526020019081526020016000206004015410612204576040517f08c379a000000000000000000000000000000000000000000000000000000000815260040180806020018281038252601d8152602001807f3431303a2052616e676520697320626f6f6b6564206561726c6965722e00000081525060200191505060405180910390fd5b600060026000878152602001908152602001600020600083815260200190815260200160002060030160006101000a81548160ff02191690831515021790555042600260008781526020019081526020016000206000838152602001908152602001600020600401819055503360026000878152602001908152602001600020600083815260200190815260200160002060050160006101000a81548173ffffffffffffffffffffffffffffffffffffffff021916908373ffffffffffffffffffffffffffffffffffffffff160217905550809150509392505050565b6040518060400160405280606081526020016000600281111561230057fe5b81525090565b828054600181600116156101000203166002900490600052602060002090601f016020900481019282601f1061234757805160ff1916838001178555612375565b82800160010185558215612375579182015b82811115612374578251825591602001919060010190612359565b5b50905061238291906123d4565b5090565b6040518060c0016040528060008152602001600081526020016000815260200160001515815260200160008152602001600073ffffffffffffffffffffffffffffffffffffffff1681525090565b6123f691905b808211156123f25760008160009055506001016123da565b5090565b9056fe3430333a204e6f7420796f757220626c6f636b696e6720746f2072656c6561736521a265627a7a723158207c32ff2023bf49c6de05821a4486f710cdd8486d91e07c6faa67014070cfb88c64736f6c63430005100032",
  "source": "// SPDX-License-Identifier: MIT\npragma solidity >=0.4.22 <0.9.0;\n\n\ncontract UserContract{\n    enum accessor { default_val,inventory_partner, ota_partner }\n\n    struct User{\n        string name;\n        accessor accessorType;\n    }\n    mapping (address => User) public users;\n    \n    modifier validateUser{\n        require(users[msg.sender].accessorType != accessor(0),\"403:Unauthorized\");\n        _;\n    }\n    \n    function onboardUser(string memory _name, accessor userType) public returns(string memory){\n        require(users[msg.sender].accessorType == accessor(0),\"400: User already exits\");\n        User memory user;\n        user.name = _name;\n        user.accessorType = userType;\n        users[msg.sender] = user;\n        return users[msg.sender].name;\n    }\n\n    function getUserByAddress(address queryAddress) public view validateUser returns(string memory){\n        if(users[queryAddress].accessorType==accessor(0)){\n            return \"none\";\n        }\n        return users[queryAddress].name;\n    }\n    \n}\n\ncontract HouseContract is UserContract{\n\n    mapping (uint256 => address) public house_owner_map;\n    \n    function createHouse(uint256 house_id) public validateUser returns (bool){\n        require(users[msg.sender].accessorType == accessor(1),\"403:Unauthorized\");\n        require(house_owner_map[house_id] == address(0),\"400: House already exists!\");\n        house_owner_map[house_id] = msg.sender;\n        return true;\n    }\n    \n    function deleteHouse(uint256 house_id) public validateUser returns (bool){\n        require(users[msg.sender].accessorType == accessor(1),\"403:Unauthorized\");\n        require(house_owner_map[house_id] != address(0),\"404: House not found!\");\n        house_owner_map[house_id] = address(0);\n    }\n    \n}\n\ncontract ARIContract is HouseContract{\n\n    constructor() public {\n      accessor choice = accessor.inventory_partner;\n      onboardUser(\"new_partner\",choice);\n      createHouse(1);\n      createARIForHouseByRange(1,1623064189,1623323389,256);\n   }\n    \n    struct Range{\n        uint256 from_date;\n        uint256 to_date;\n        int256 price;\n        bool available;\n        uint256 block_timestamp;\n        address modifying_entity;\n    }\n    \n    mapping(uint256 => mapping(bytes32 => Range)) public houseAriMap;\n    \n    //In order to fetch and display all ARI\n    mapping(uint256 => bytes32[]) public houseArikeyMap;\n\n    function getARICount(uint256 houseId) public view returns (uint256){\n        return houseArikeyMap[houseId].length;\n    }\n    \n    function createARIForHouseByRange(uint256 house_id, uint256 _from_date, uint256 _to_date, int256 _price) public validateUser returns (bytes32){\n        require(users[msg.sender].accessorType == accessor(1),\"403:Unauthorized\");\n        require(house_owner_map[house_id] != address(0),\"House not created\");\n        Range memory newRange;\n        newRange.from_date = _from_date;\n        newRange.to_date = _to_date;\n        newRange.price = _price;\n        newRange.available = true;\n        bytes32 rangeHash = sha256(abi.encode(_from_date,_to_date));\n        houseAriMap[house_id][rangeHash] = newRange;\n        houseArikeyMap[house_id].push(rangeHash);\n        return rangeHash;\n    }\n    \n    function blockARI(uint256 house_id,uint256 _from_date, uint256 _to_date) public validateUser returns(bytes32){\n        bytes32 rangeHash = sha256(abi.encode(_from_date,_to_date));\n        require(house_owner_map[house_id] != address(0),\"404:House not created\");\n        require(houseAriMap[house_id][rangeHash].from_date != 0,\"404:Range not found\");\n        require(houseAriMap[house_id][rangeHash].available != false,\"404:Range is not available\");\n        require(houseAriMap[house_id][rangeHash].block_timestamp < block.timestamp,\"410: Range is booked earlier.\");\n        houseAriMap[house_id][rangeHash].available = false;\n        houseAriMap[house_id][rangeHash].block_timestamp = block.timestamp;\n        houseAriMap[house_id][rangeHash].modifying_entity = msg.sender;\n        return rangeHash;\n        \n    }\n    \n    function releaseARI(uint256 house_id,uint256 _from_date, uint256 _to_date) public validateUser returns(bytes32){\n        bytes32 rangeHash = sha256(abi.encode(_from_date,_to_date));\n        require(house_owner_map[house_id] != address(0),\"404:House not created\");\n        require(houseAriMap[house_id][rangeHash].from_date != 0,\"404:Range not found\");\n        require(houseAriMap[house_id][rangeHash].available == false,\"404:Range is not blocked\");\n        require(houseAriMap[house_id][rangeHash].modifying_entity == msg.sender,\"403: Not your blocking to release!\");\n        houseAriMap[house_id][rangeHash].available = true;\n        houseAriMap[house_id][rangeHash].block_timestamp = 0;\n        houseAriMap[house_id][rangeHash].modifying_entity = address(0);\n        return rangeHash;\n        \n    }\n    \n}",
  "sourcePath": "/Users/bagulishanmahendra/workspace/blockchain-hotel-ari/contracts/ari_system.sol",
  "compiler": {
    "name": "solc",
    "version": "0.5.16+commit.9c3226ce.Emscripten.clang"
  },
  "schemaVersion": "3.4.1",
  "updatedAt": "2021-06-10T16:18:12.690Z",
  "networkType": "ethereum",
  "devdoc": {
    "methods": {}
  },
  "userdoc": {
    "methods": {}
  }
}