{
  "contractName": "ARIContract",
  "abi": [
    {
      "constant": true,
      "inputs": [
        {
          "name": "",
          "type": "uint256"
        },
        {
          "name": "",
          "type": "bytes32"
        }
      ],
      "name": "houseAriMap",
      "outputs": [
        {
          "name": "from_date",
          "type": "uint256"
        },
        {
          "name": "to_date",
          "type": "uint256"
        },
        {
          "name": "price",
          "type": "int256"
        },
        {
          "name": "available",
          "type": "bool"
        },
        {
          "name": "block_timestamp",
          "type": "uint256"
        },
        {
          "name": "modifying_entity",
          "type": "address"
        }
      ],
      "payable": false,
      "stateMutability": "view",
      "type": "function",
      "signature": "0x34d7fbfd"
    },
    {
      "constant": true,
      "inputs": [
        {
          "name": "",
          "type": "uint256"
        }
      ],
      "name": "house_owner_map",
      "outputs": [
        {
          "name": "",
          "type": "address"
        }
      ],
      "payable": false,
      "stateMutability": "view",
      "type": "function",
      "signature": "0x38a86520"
    },
    {
      "constant": true,
      "inputs": [
        {
          "name": "",
          "type": "uint256"
        },
        {
          "name": "",
          "type": "uint256"
        }
      ],
      "name": "houseArikeyMap",
      "outputs": [
        {
          "name": "",
          "type": "bytes32"
        }
      ],
      "payable": false,
      "stateMutability": "view",
      "type": "function",
      "signature": "0x431b5296"
    },
    {
      "constant": false,
      "inputs": [
        {
          "name": "house_id",
          "type": "uint256"
        }
      ],
      "name": "deleteHouse",
      "outputs": [
        {
          "name": "",
          "type": "bool"
        }
      ],
      "payable": false,
      "stateMutability": "nonpayable",
      "type": "function",
      "signature": "0x4c9b56fd"
    },
    {
      "constant": true,
      "inputs": [
        {
          "name": "",
          "type": "address"
        }
      ],
      "name": "users",
      "outputs": [
        {
          "name": "",
          "type": "uint8"
        }
      ],
      "payable": false,
      "stateMutability": "view",
      "type": "function",
      "signature": "0xa87430ba"
    },
    {
      "constant": false,
      "inputs": [
        {
          "name": "userType",
          "type": "uint8"
        }
      ],
      "name": "onboardUser",
      "outputs": [
        {
          "name": "",
          "type": "uint8"
        }
      ],
      "payable": false,
      "stateMutability": "nonpayable",
      "type": "function",
      "signature": "0xacdf8530"
    },
    {
      "constant": false,
      "inputs": [
        {
          "name": "house_id",
          "type": "uint256"
        }
      ],
      "name": "createHouse",
      "outputs": [
        {
          "name": "",
          "type": "bool"
        }
      ],
      "payable": false,
      "stateMutability": "nonpayable",
      "type": "function",
      "signature": "0xbed76bb3"
    },
    {
      "constant": false,
      "inputs": [
        {
          "name": "house_id",
          "type": "uint256"
        },
        {
          "name": "_from_date",
          "type": "uint256"
        },
        {
          "name": "_to_date",
          "type": "uint256"
        },
        {
          "name": "_price",
          "type": "int256"
        }
      ],
      "name": "createARIForHouseByRange",
      "outputs": [
        {
          "name": "",
          "type": "bytes32"
        }
      ],
      "payable": false,
      "stateMutability": "nonpayable",
      "type": "function",
      "signature": "0x5d12154f"
    },
    {
      "constant": false,
      "inputs": [
        {
          "name": "house_id",
          "type": "uint256"
        },
        {
          "name": "_from_date",
          "type": "uint256"
        },
        {
          "name": "_to_date",
          "type": "uint256"
        }
      ],
      "name": "blockARI",
      "outputs": [
        {
          "name": "",
          "type": "bytes32"
        }
      ],
      "payable": false,
      "stateMutability": "nonpayable",
      "type": "function",
      "signature": "0xe0d5690c"
    },
    {
      "constant": false,
      "inputs": [
        {
          "name": "house_id",
          "type": "uint256"
        },
        {
          "name": "_from_date",
          "type": "uint256"
        },
        {
          "name": "_to_date",
          "type": "uint256"
        }
      ],
      "name": "releaseARI",
      "outputs": [
        {
          "name": "",
          "type": "bytes32"
        }
      ],
      "payable": false,
      "stateMutability": "nonpayable",
      "type": "function",
      "signature": "0x8071d984"
    }
  ],
  "bytecode": "0x608060405234801561001057600080fd5b50611d99806100206000396000f3fe6080604052600436106100a4576000357c0100000000000000000000000000000000000000000000000000000000900463ffffffff16806334d7fbfd146100a957806338a8652014610155578063431b5296146101d05780634c9b56fd146102295780635d12154f1461027c5780638071d984146102e9578063a87430ba1461034c578063acdf8530146103bf578063bed76bb31461041f578063e0d5690c14610472575b600080fd5b3480156100b557600080fd5b506100ec600480360360408110156100cc57600080fd5b8101908080359060200190929190803590602001909291905050506104d5565b60405180878152602001868152602001858152602001841515151581526020018381526020018273ffffffffffffffffffffffffffffffffffffffff1673ffffffffffffffffffffffffffffffffffffffff168152602001965050505050505060405180910390f35b34801561016157600080fd5b5061018e6004803603602081101561017857600080fd5b810190808035906020019092919050505061054b565b604051808273ffffffffffffffffffffffffffffffffffffffff1673ffffffffffffffffffffffffffffffffffffffff16815260200191505060405180910390f35b3480156101dc57600080fd5b50610213600480360360408110156101f357600080fd5b81019080803590602001909291908035906020019092919050505061057e565b6040518082815260200191505060405180910390f35b34801561023557600080fd5b506102626004803603602081101561024c57600080fd5b81019080803590602001909291905050506105ae565b604051808215151515815260200191505060405180910390f35b34801561028857600080fd5b506102d36004803603608081101561029f57600080fd5b81019080803590602001909291908035906020019092919080359060200190929190803590602001909291905050506108a8565b6040518082815260200191505060405180910390f35b3480156102f557600080fd5b506103366004803603606081101561030c57600080fd5b81019080803590602001909291908035906020019092919080359060200190929190505050610d4d565b6040518082815260200191505060405180910390f35b34801561035857600080fd5b5061039b6004803603602081101561036f57600080fd5b81019080803573ffffffffffffffffffffffffffffffffffffffff169060200190929190505050611316565b604051808260028111156103ab57fe5b60ff16815260200191505060405180910390f35b3480156103cb57600080fd5b506103fb600480360360208110156103e257600080fd5b81019080803560ff169060200190929190505050611336565b6040518082600281111561040b57fe5b60ff16815260200191505060405180910390f35b34801561042b57600080fd5b506104586004803603602081101561044257600080fd5b81019080803590602001909291905050506114cd565b604051808215151515815260200191505060405180910390f35b34801561047e57600080fd5b506104bf6004803603606081101561049557600080fd5b810190808035906020019092919080359060200190929190803590602001909291905050506117c9565b6040518082815260200191505060405180910390f35b6002602052816000526040600020602052806000526040600020600091509150508060000154908060010154908060020154908060030160009054906101000a900460ff16908060040154908060050160009054906101000a900473ffffffffffffffffffffffffffffffffffffffff16905086565b60016020528060005260406000206000915054906101000a900473ffffffffffffffffffffffffffffffffffffffff1681565b60036020528160005260406000208181548110151561059957fe5b90600052602060002001600091509150505481565b60008060028111156105bc57fe5b60028111156105c757fe5b6000803373ffffffffffffffffffffffffffffffffffffffff1673ffffffffffffffffffffffffffffffffffffffff16815260200190815260200160002060009054906101000a900460ff16600281111561061e57fe5b14151515610694576040517f08c379a00000000000000000000000000000000000000000000000000000000081526004018080602001828103825260108152602001807f3430333a556e617574686f72697a65640000000000000000000000000000000081525060200191505060405180910390fd5b600160028111156106a157fe5b60028111156106ac57fe5b6000803373ffffffffffffffffffffffffffffffffffffffff1673ffffffffffffffffffffffffffffffffffffffff16815260200190815260200160002060009054906101000a900460ff16600281111561070357fe5b141515610778576040517f08c379a00000000000000000000000000000000000000000000000000000000081526004018080602001828103825260108152602001807f3430333a556e617574686f72697a65640000000000000000000000000000000081525060200191505060405180910390fd5b600073ffffffffffffffffffffffffffffffffffffffff166001600084815260200190815260200160002060009054906101000a900473ffffffffffffffffffffffffffffffffffffffff1673ffffffffffffffffffffffffffffffffffffffff1614151515610850576040517f08c379a00000000000000000000000000000000000000000000000000000000081526004018080602001828103825260158152602001807f3430343a20486f757365206e6f7420666f756e6421000000000000000000000081525060200191505060405180910390fd5b60006001600084815260200190815260200160002060006101000a81548173ffffffffffffffffffffffffffffffffffffffff021916908373ffffffffffffffffffffffffffffffffffffffff160217905550919050565b60008060028111156108b657fe5b60028111156108c157fe5b6000803373ffffffffffffffffffffffffffffffffffffffff1673ffffffffffffffffffffffffffffffffffffffff16815260200190815260200160002060009054906101000a900460ff16600281111561091857fe5b1415151561098e576040517f08c379a00000000000000000000000000000000000000000000000000000000081526004018080602001828103825260108152602001807f3430333a556e617574686f72697a65640000000000000000000000000000000081525060200191505060405180910390fd5b6001600281111561099b57fe5b60028111156109a657fe5b6000803373ffffffffffffffffffffffffffffffffffffffff1673ffffffffffffffffffffffffffffffffffffffff16815260200190815260200160002060009054906101000a900460ff1660028111156109fd57fe5b141515610a72576040517f08c379a00000000000000000000000000000000000000000000000000000000081526004018080602001828103825260108152602001807f3430333a556e617574686f72697a65640000000000000000000000000000000081525060200191505060405180910390fd5b600073ffffffffffffffffffffffffffffffffffffffff166001600087815260200190815260200160002060009054906101000a900473ffffffffffffffffffffffffffffffffffffffff1673ffffffffffffffffffffffffffffffffffffffff1614151515610b4a576040517f08c379a00000000000000000000000000000000000000000000000000000000081526004018080602001828103825260118152602001807f486f757365206e6f74206372656174656400000000000000000000000000000081525060200191505060405180910390fd5b610b52611d1e565b848160000181815250508381602001818152505082816040018181525050600181606001901515908115158152505060006002868660405160200180838152602001828152602001925050506040516020818303038152906040526040518082805190602001908083835b602083101515610be25780518252602082019150602081019050602083039250610bbd565b6001836020036101000a038019825116818451168082178552505050505050905001915050602060405180830381855afa158015610c24573d6000803e3d6000fd5b5050506040513d6020811015610c3957600080fd5b810190808051906020019092919050505090508160026000898152602001908152602001600020600083815260200190815260200160002060008201518160000155602082015181600101556040820151816002015560608201518160030160006101000a81548160ff0219169083151502179055506080820151816004015560a08201518160050160006101000a81548173ffffffffffffffffffffffffffffffffffffffff021916908373ffffffffffffffffffffffffffffffffffffffff160217905550905050600360008881526020019081526020016000208190806001815401808255809150509060018203906000526020600020016000909192909190915055508092505050949350505050565b6000806002811115610d5b57fe5b6002811115610d6657fe5b6000803373ffffffffffffffffffffffffffffffffffffffff1673ffffffffffffffffffffffffffffffffffffffff16815260200190815260200160002060009054906101000a900460ff166002811115610dbd57fe5b14151515610e33576040517f08c379a00000000000000000000000000000000000000000000000000000000081526004018080602001828103825260108152602001807f3430333a556e617574686f72697a65640000000000000000000000000000000081525060200191505060405180910390fd5b60006002848460405160200180838152602001828152602001925050506040516020818303038152906040526040518082805190602001908083835b602083101515610e945780518252602082019150602081019050602083039250610e6f565b6001836020036101000a038019825116818451168082178552505050505050905001915050602060405180830381855afa158015610ed6573d6000803e3d6000fd5b5050506040513d6020811015610eeb57600080fd5b81019080805190602001909291905050509050600073ffffffffffffffffffffffffffffffffffffffff166001600087815260200190815260200160002060009054906101000a900473ffffffffffffffffffffffffffffffffffffffff1673ffffffffffffffffffffffffffffffffffffffff1614151515610fd6576040517f08c379a00000000000000000000000000000000000000000000000000000000081526004018080602001828103825260158152602001807f3430343a486f757365206e6f742063726561746564000000000000000000000081525060200191505060405180910390fd5b60006002600087815260200190815260200160002060008381526020019081526020016000206000015414151515611076576040517f08c379a00000000000000000000000000000000000000000000000000000000081526004018080602001828103825260138152602001807f3430343a52616e6765206e6f7420666f756e640000000000000000000000000081525060200191505060405180910390fd5b6001151560026000878152602001908152602001600020600083815260200190815260200160002060030160009054906101000a900460ff16151514151515611127576040517f08c379a00000000000000000000000000000000000000000000000000000000081526004018080602001828103825260188152602001807f3430343a52616e6765206973206e6f7420626c6f636b6564000000000000000081525060200191505060405180910390fd5b3373ffffffffffffffffffffffffffffffffffffffff1660026000878152602001908152602001600020600083815260200190815260200160002060050160009054906101000a900473ffffffffffffffffffffffffffffffffffffffff1673ffffffffffffffffffffffffffffffffffffffff16141515611237576040517f08c379a00000000000000000000000000000000000000000000000000000000081526004018080602001828103825260228152602001807f3430333a204e6f7420796f757220626c6f636b696e6720746f2072656c65617381526020017f652100000000000000000000000000000000000000000000000000000000000081525060400191505060405180910390fd5b600160026000878152602001908152602001600020600083815260200190815260200160002060030160006101000a81548160ff021916908315150217905550600060026000878152602001908152602001600020600083815260200190815260200160002060040181905550600060026000878152602001908152602001600020600083815260200190815260200160002060050160006101000a81548173ffffffffffffffffffffffffffffffffffffffff021916908373ffffffffffffffffffffffffffffffffffffffff160217905550809150509392505050565b60006020528060005260406000206000915054906101000a900460ff1681565b600080600281111561134457fe5b600281111561134f57fe5b6000803373ffffffffffffffffffffffffffffffffffffffff1673ffffffffffffffffffffffffffffffffffffffff16815260200190815260200160002060009054906101000a900460ff1660028111156113a657fe5b14151561141b576040517f08c379a00000000000000000000000000000000000000000000000000000000081526004018080602001828103825260178152602001807f3430303a205573657220616c726561647920657869747300000000000000000081525060200191505060405180910390fd5b816000803373ffffffffffffffffffffffffffffffffffffffff1673ffffffffffffffffffffffffffffffffffffffff16815260200190815260200160002060006101000a81548160ff0219169083600281111561147557fe5b02179055506000803373ffffffffffffffffffffffffffffffffffffffff1673ffffffffffffffffffffffffffffffffffffffff16815260200190815260200160002060009054906101000a900460ff169050919050565b60008060028111156114db57fe5b60028111156114e657fe5b6000803373ffffffffffffffffffffffffffffffffffffffff1673ffffffffffffffffffffffffffffffffffffffff16815260200190815260200160002060009054906101000a900460ff16600281111561153d57fe5b141515156115b3576040517f08c379a00000000000000000000000000000000000000000000000000000000081526004018080602001828103825260108152602001807f3430333a556e617574686f72697a65640000000000000000000000000000000081525060200191505060405180910390fd5b600160028111156115c057fe5b60028111156115cb57fe5b6000803373ffffffffffffffffffffffffffffffffffffffff1673ffffffffffffffffffffffffffffffffffffffff16815260200190815260200160002060009054906101000a900460ff16600281111561162257fe5b141515611697576040517f08c379a00000000000000000000000000000000000000000000000000000000081526004018080602001828103825260108152602001807f3430333a556e617574686f72697a65640000000000000000000000000000000081525060200191505060405180910390fd5b600073ffffffffffffffffffffffffffffffffffffffff166001600084815260200190815260200160002060009054906101000a900473ffffffffffffffffffffffffffffffffffffffff1673ffffffffffffffffffffffffffffffffffffffff1614151561176e576040517f08c379a000000000000000000000000000000000000000000000000000000000815260040180806020018281038252601a8152602001807f3430303a20486f75736520616c7265616479206578697374732100000000000081525060200191505060405180910390fd5b336001600084815260200190815260200160002060006101000a81548173ffffffffffffffffffffffffffffffffffffffff021916908373ffffffffffffffffffffffffffffffffffffffff16021790555060019050919050565b60008060028111156117d757fe5b60028111156117e257fe5b6000803373ffffffffffffffffffffffffffffffffffffffff1673ffffffffffffffffffffffffffffffffffffffff16815260200190815260200160002060009054906101000a900460ff16600281111561183957fe5b141515156118af576040517f08c379a00000000000000000000000000000000000000000000000000000000081526004018080602001828103825260108152602001807f3430333a556e617574686f72697a65640000000000000000000000000000000081525060200191505060405180910390fd5b60006002848460405160200180838152602001828152602001925050506040516020818303038152906040526040518082805190602001908083835b60208310151561191057805182526020820191506020810190506020830392506118eb565b6001836020036101000a038019825116818451168082178552505050505050905001915050602060405180830381855afa158015611952573d6000803e3d6000fd5b5050506040513d602081101561196757600080fd5b81019080805190602001909291905050509050600073ffffffffffffffffffffffffffffffffffffffff166001600087815260200190815260200160002060009054906101000a900473ffffffffffffffffffffffffffffffffffffffff1673ffffffffffffffffffffffffffffffffffffffff1614151515611a52576040517f08c379a00000000000000000000000000000000000000000000000000000000081526004018080602001828103825260158152602001807f3430343a486f757365206e6f742063726561746564000000000000000000000081525060200191505060405180910390fd5b60006002600087815260200190815260200160002060008381526020019081526020016000206000015414151515611af2576040517f08c379a00000000000000000000000000000000000000000000000000000000081526004018080602001828103825260138152602001807f3430343a52616e6765206e6f7420666f756e640000000000000000000000000081525060200191505060405180910390fd5b6000151560026000878152602001908152602001600020600083815260200190815260200160002060030160009054906101000a900460ff16151514151515611ba3576040517f08c379a000000000000000000000000000000000000000000000000000000000815260040180806020018281038252601a8152602001807f3430343a52616e6765206973206e6f7420617661696c61626c6500000000000081525060200191505060405180910390fd5b4260026000878152602001908152602001600020600083815260200190815260200160002060040154101515611c41576040517f08c379a000000000000000000000000000000000000000000000000000000000815260040180806020018281038252601d8152602001807f3431303a2052616e676520697320626f6f6b6564206561726c6965722e00000081525060200191505060405180910390fd5b600060026000878152602001908152602001600020600083815260200190815260200160002060030160006101000a81548160ff02191690831515021790555042600260008781526020019081526020016000206000838152602001908152602001600020600401819055503360026000878152602001908152602001600020600083815260200190815260200160002060050160006101000a81548173ffffffffffffffffffffffffffffffffffffffff021916908373ffffffffffffffffffffffffffffffffffffffff160217905550809150509392505050565b60c06040519081016040528060008152602001600081526020016000815260200160001515815260200160008152602001600073ffffffffffffffffffffffffffffffffffffffff168152509056fea165627a7a72305820bff881a2ee1691e41ebe3f30bd89ee8351723d163cb81efd3a1fb5f181cd66730029",
  "source": "// SPDX-License-Identifier: MIT\npragma solidity >=0.4.22 <0.9.0;\n\n\ncontract UserContract{\n    enum accessor { default_val,inventory_partner, ota_partner }\n    mapping (address => accessor) public users;\n    \n    modifier validateUser{\n        require(users[msg.sender] != accessor(0),\"403:Unauthorized\");\n        _;\n    }\n    \n    function onboardUser(accessor userType) external returns(accessor){\n        require(users[msg.sender] == accessor(0),\"400: User already exits\");\n        users[msg.sender] = userType;\n        return users[msg.sender];\n    }\n    \n}\n\ncontract HouseContract is UserContract{\n\n    mapping (uint256 => address) public house_owner_map;\n    \n    function createHouse(uint256 house_id) public validateUser returns (bool){\n        require(users[msg.sender] == accessor(1),\"403:Unauthorized\");\n        require(house_owner_map[house_id] == address(0),\"400: House already exists!\");\n        house_owner_map[house_id] = msg.sender;\n        return true;\n    }\n    \n    function deleteHouse(uint256 house_id) public validateUser returns (bool){\n        require(users[msg.sender] == accessor(1),\"403:Unauthorized\");\n        require(house_owner_map[house_id] != address(0),\"404: House not found!\");\n        house_owner_map[house_id] = address(0);\n    }\n    \n}\n\ncontract ARIContract is HouseContract{\n    \n    struct Range{\n        uint256 from_date;\n        uint256 to_date;\n        int256 price;\n        bool available;\n        uint256 block_timestamp;\n        address modifying_entity;\n    }\n    \n    mapping(uint256 => mapping(bytes32 => Range)) public houseAriMap;\n    \n    //In order to fetch and display all ARI\n    mapping(uint256 => bytes32[]) public houseArikeyMap;\n    \n    function createARIForHouseByRange(uint256 house_id, uint256 _from_date, uint256 _to_date, int256 _price) public validateUser returns (bytes32){\n        require(users[msg.sender] == accessor(1),\"403:Unauthorized\");\n        require(house_owner_map[house_id] != address(0),\"House not created\");\n        Range memory newRange;\n        newRange.from_date = _from_date;\n        newRange.to_date = _to_date;\n        newRange.price = _price;\n        newRange.available = true;\n        bytes32 rangeHash = sha256(abi.encode(_from_date,_to_date));\n        houseAriMap[house_id][rangeHash] = newRange;\n        houseArikeyMap[house_id].push(rangeHash);\n        return rangeHash;\n    }\n    \n    function blockARI(uint256 house_id,uint256 _from_date, uint256 _to_date) public validateUser returns(bytes32){\n        bytes32 rangeHash = sha256(abi.encode(_from_date,_to_date));\n        require(house_owner_map[house_id] != address(0),\"404:House not created\");\n        require(houseAriMap[house_id][rangeHash].from_date != 0,\"404:Range not found\");\n        require(houseAriMap[house_id][rangeHash].available != false,\"404:Range is not available\");\n        require(houseAriMap[house_id][rangeHash].block_timestamp < block.timestamp,\"410: Range is booked earlier.\");\n        houseAriMap[house_id][rangeHash].available = false;\n        houseAriMap[house_id][rangeHash].block_timestamp = block.timestamp;\n        houseAriMap[house_id][rangeHash].modifying_entity = msg.sender;\n        return rangeHash;\n        \n    }\n    \n    function releaseARI(uint256 house_id,uint256 _from_date, uint256 _to_date) public validateUser returns(bytes32){\n        bytes32 rangeHash = sha256(abi.encode(_from_date,_to_date));\n        require(house_owner_map[house_id] != address(0),\"404:House not created\");\n        require(houseAriMap[house_id][rangeHash].from_date != 0,\"404:Range not found\");\n        require(houseAriMap[house_id][rangeHash].available != true,\"404:Range is not blocked\");\n        require(houseAriMap[house_id][rangeHash].modifying_entity == msg.sender,\"403: Not your blocking to release!\");\n        houseAriMap[house_id][rangeHash].available = true;\n        houseAriMap[house_id][rangeHash].block_timestamp = 0;\n        houseAriMap[house_id][rangeHash].modifying_entity = address(0);\n        return rangeHash;\n        \n    }\n    \n}",
  "sourcePath": "/Users/oyo/Documents/PersonalDev/blockchain-hotel-ari/contracts/ari_system.sol",
  "compiler": {
    "name": "solc",
    "version": "0.5.0+commit.1d4f565a.Emscripten.clang"
  },
  "schemaVersion": "3.0.1",
  "updatedAt": "2021-06-09T17:08:59.990Z",
  "devdoc": {
    "methods": {}
  },
  "userdoc": {
    "methods": {}
  }
}