{
  "contractName": "HouseContract",
  "abi": [
    {
      "constant": true,
      "inputs": [
        {
          "internalType": "address",
          "name": "queryAddress",
          "type": "address"
        }
      ],
      "name": "getUserByAddress",
      "outputs": [
        {
          "internalType": "string",
          "name": "",
          "type": "string"
        }
      ],
      "payable": false,
      "stateMutability": "view",
      "type": "function"
    },
    {
      "constant": true,
      "inputs": [
        {
          "internalType": "uint256",
          "name": "",
          "type": "uint256"
        }
      ],
      "name": "house_owner_map",
      "outputs": [
        {
          "internalType": "address",
          "name": "",
          "type": "address"
        }
      ],
      "payable": false,
      "stateMutability": "view",
      "type": "function"
    },
    {
      "constant": false,
      "inputs": [
        {
          "internalType": "enum UserContract.accessor",
          "name": "userType",
          "type": "uint8"
        }
      ],
      "name": "onboardUser",
      "outputs": [
        {
          "internalType": "enum UserContract.accessor",
          "name": "",
          "type": "uint8"
        }
      ],
      "payable": false,
      "stateMutability": "nonpayable",
      "type": "function"
    },
    {
      "constant": true,
      "inputs": [
        {
          "internalType": "address",
          "name": "",
          "type": "address"
        }
      ],
      "name": "users",
      "outputs": [
        {
          "internalType": "enum UserContract.accessor",
          "name": "",
          "type": "uint8"
        }
      ],
      "payable": false,
      "stateMutability": "view",
      "type": "function"
    },
    {
      "constant": false,
      "inputs": [
        {
          "internalType": "uint256",
          "name": "house_id",
          "type": "uint256"
        }
      ],
      "name": "createHouse",
      "outputs": [
        {
          "internalType": "bool",
          "name": "",
          "type": "bool"
        }
      ],
      "payable": false,
      "stateMutability": "nonpayable",
      "type": "function"
    },
    {
      "constant": false,
      "inputs": [
        {
          "internalType": "uint256",
          "name": "house_id",
          "type": "uint256"
        }
      ],
      "name": "deleteHouse",
      "outputs": [
        {
          "internalType": "bool",
          "name": "",
          "type": "bool"
        }
      ],
      "payable": false,
      "stateMutability": "nonpayable",
      "type": "function"
    }
  ],
  "bytecode": "0x608060405234801561001057600080fd5b50610d65806100206000396000f3fe608060405234801561001057600080fd5b50600436106100625760003560e01c806338a86520146100675780634c9b56fd146100d557806369c212f61461011b578063a87430ba146101d8578063acdf85301461023e578063bed76bb314610291575b600080fd5b6100936004803603602081101561007d57600080fd5b81019080803590602001909291905050506102d7565b604051808273ffffffffffffffffffffffffffffffffffffffff1673ffffffffffffffffffffffffffffffffffffffff16815260200191505060405180910390f35b610101600480360360208110156100eb57600080fd5b810190808035906020019092919050505061030a565b604051808215151515815260200191505060405180910390f35b61015d6004803603602081101561013157600080fd5b81019080803573ffffffffffffffffffffffffffffffffffffffff1690602001909291905050506105fe565b6040518080602001828103825283818151815260200191508051906020019080838360005b8381101561019d578082015181840152602081019050610182565b50505050905090810190601f1680156101ca5780820380516001836020036101000a031916815260200191505b509250505060405180910390f35b61021a600480360360208110156101ee57600080fd5b81019080803573ffffffffffffffffffffffffffffffffffffffff169060200190929190505050610885565b6040518082600281111561022a57fe5b60ff16815260200191505060405180910390f35b61026d6004803603602081101561025457600080fd5b81019080803560ff1690602001909291905050506108a5565b6040518082600281111561027d57fe5b60ff16815260200191505060405180910390f35b6102bd600480360360208110156102a757600080fd5b8101908080359060200190929190505050610a3a565b604051808215151515815260200191505060405180910390f35b60016020528060005260406000206000915054906101000a900473ffffffffffffffffffffffffffffffffffffffff1681565b600080600281111561031857fe5b600281111561032357fe5b6000803373ffffffffffffffffffffffffffffffffffffffff1673ffffffffffffffffffffffffffffffffffffffff16815260200190815260200160002060009054906101000a900460ff16600281111561037a57fe5b14156103ee576040517f08c379a00000000000000000000000000000000000000000000000000000000081526004018080602001828103825260108152602001807f3430333a556e617574686f72697a65640000000000000000000000000000000081525060200191505060405180910390fd5b600160028111156103fb57fe5b600281111561040657fe5b6000803373ffffffffffffffffffffffffffffffffffffffff1673ffffffffffffffffffffffffffffffffffffffff16815260200190815260200160002060009054906101000a900460ff16600281111561045d57fe5b146104d0576040517f08c379a00000000000000000000000000000000000000000000000000000000081526004018080602001828103825260108152602001807f3430333a556e617574686f72697a65640000000000000000000000000000000081525060200191505060405180910390fd5b600073ffffffffffffffffffffffffffffffffffffffff166001600084815260200190815260200160002060009054906101000a900473ffffffffffffffffffffffffffffffffffffffff1673ffffffffffffffffffffffffffffffffffffffff1614156105a6576040517f08c379a00000000000000000000000000000000000000000000000000000000081526004018080602001828103825260158152602001807f3430343a20486f757365206e6f7420666f756e6421000000000000000000000081525060200191505060405180910390fd5b60006001600084815260200190815260200160002060006101000a81548173ffffffffffffffffffffffffffffffffffffffff021916908373ffffffffffffffffffffffffffffffffffffffff160217905550919050565b60606000600281111561060d57fe5b600281111561061857fe5b6000803373ffffffffffffffffffffffffffffffffffffffff1673ffffffffffffffffffffffffffffffffffffffff16815260200190815260200160002060009054906101000a900460ff16600281111561066f57fe5b14156106e3576040517f08c379a00000000000000000000000000000000000000000000000000000000081526004018080602001828103825260108152602001807f3430333a556e617574686f72697a65640000000000000000000000000000000081525060200191505060405180910390fd5b600060028111156106f057fe5b60028111156106fb57fe5b6000808473ffffffffffffffffffffffffffffffffffffffff1673ffffffffffffffffffffffffffffffffffffffff16815260200190815260200160002060009054906101000a900460ff16600281111561075257fe5b1415610795576040518060400160405280600481526020017f6e6f6e65000000000000000000000000000000000000000000000000000000008152509050610880565b600160028111156107a257fe5b60028111156107ad57fe5b6000808473ffffffffffffffffffffffffffffffffffffffff1673ffffffffffffffffffffffffffffffffffffffff16815260200190815260200160002060009054906101000a900460ff16600281111561080457fe5b1415610847576040518060400160405280601181526020017f696e76656e746f72795f706172746e65720000000000000000000000000000008152509050610880565b6040518060400160405280600b81526020017f6f74615f706172746e657200000000000000000000000000000000000000000081525090505b919050565b60006020528060005260406000206000915054906101000a900460ff1681565b60008060028111156108b357fe5b60028111156108be57fe5b6000803373ffffffffffffffffffffffffffffffffffffffff1673ffffffffffffffffffffffffffffffffffffffff16815260200190815260200160002060009054906101000a900460ff16600281111561091557fe5b14610988576040517f08c379a00000000000000000000000000000000000000000000000000000000081526004018080602001828103825260178152602001807f3430303a205573657220616c726561647920657869747300000000000000000081525060200191505060405180910390fd5b816000803373ffffffffffffffffffffffffffffffffffffffff1673ffffffffffffffffffffffffffffffffffffffff16815260200190815260200160002060006101000a81548160ff021916908360028111156109e257fe5b02179055506000803373ffffffffffffffffffffffffffffffffffffffff1673ffffffffffffffffffffffffffffffffffffffff16815260200190815260200160002060009054906101000a900460ff169050919050565b6000806002811115610a4857fe5b6002811115610a5357fe5b6000803373ffffffffffffffffffffffffffffffffffffffff1673ffffffffffffffffffffffffffffffffffffffff16815260200190815260200160002060009054906101000a900460ff166002811115610aaa57fe5b1415610b1e576040517f08c379a00000000000000000000000000000000000000000000000000000000081526004018080602001828103825260108152602001807f3430333a556e617574686f72697a65640000000000000000000000000000000081525060200191505060405180910390fd5b60016002811115610b2b57fe5b6002811115610b3657fe5b6000803373ffffffffffffffffffffffffffffffffffffffff1673ffffffffffffffffffffffffffffffffffffffff16815260200190815260200160002060009054906101000a900460ff166002811115610b8d57fe5b14610c00576040517f08c379a00000000000000000000000000000000000000000000000000000000081526004018080602001828103825260108152602001807f3430333a556e617574686f72697a65640000000000000000000000000000000081525060200191505060405180910390fd5b600073ffffffffffffffffffffffffffffffffffffffff166001600084815260200190815260200160002060009054906101000a900473ffffffffffffffffffffffffffffffffffffffff1673ffffffffffffffffffffffffffffffffffffffff1614610cd5576040517f08c379a000000000000000000000000000000000000000000000000000000000815260040180806020018281038252601a8152602001807f3430303a20486f75736520616c7265616479206578697374732100000000000081525060200191505060405180910390fd5b336001600084815260200190815260200160002060006101000a81548173ffffffffffffffffffffffffffffffffffffffff021916908373ffffffffffffffffffffffffffffffffffffffff1602179055506001905091905056fea265627a7a723158203459b1092865c1d3e60101309baab2c7df87b32205a417040b8575ff8221cd0964736f6c63430005100032",
  "source": "// SPDX-License-Identifier: MIT\npragma solidity >=0.4.22 <0.9.0;\n\n\ncontract UserContract{\n    enum accessor { default_val,inventory_partner, ota_partner }\n    mapping (address => accessor) public users;\n    \n    modifier validateUser{\n        require(users[msg.sender] != accessor(0),\"403:Unauthorized\");\n        _;\n    }\n    \n    function onboardUser(accessor userType) public returns(accessor){\n        require(users[msg.sender] == accessor(0),\"400: User already exits\");\n        users[msg.sender] = userType;\n        return users[msg.sender];\n    }\n\n        function getUserByAddress(address queryAddress) public view validateUser returns(string memory){\n        if(users[queryAddress]==accessor(0)){\n            return \"none\";\n        }\n        if(users[queryAddress]==accessor(1)){\n            return \"inventory_partner\";\n        }\n        return \"ota_partner\";\n    }\n    \n}\n\ncontract HouseContract is UserContract{\n\n    mapping (uint256 => address) public house_owner_map;\n    \n    function createHouse(uint256 house_id) public validateUser returns (bool){\n        require(users[msg.sender] == accessor(1),\"403:Unauthorized\");\n        require(house_owner_map[house_id] == address(0),\"400: House already exists!\");\n        house_owner_map[house_id] = msg.sender;\n        return true;\n    }\n    \n    function deleteHouse(uint256 house_id) public validateUser returns (bool){\n        require(users[msg.sender] == accessor(1),\"403:Unauthorized\");\n        require(house_owner_map[house_id] != address(0),\"404: House not found!\");\n        house_owner_map[house_id] = address(0);\n    }\n    \n}\n\ncontract ARIContract is HouseContract{\n\n    constructor() public {\n      accessor choice = accessor.inventory_partner;\n      onboardUser(choice);\n      createHouse(1);\n      createARIForHouseByRange(1,1623064189,1623323389,256);\n   }\n    \n    struct Range{\n        uint256 from_date;\n        uint256 to_date;\n        int256 price;\n        bool available;\n        uint256 block_timestamp;\n        address modifying_entity;\n    }\n    \n    mapping(uint256 => mapping(bytes32 => Range)) public houseAriMap;\n    \n    //In order to fetch and display all ARI\n    mapping(uint256 => bytes32[]) public houseArikeyMap;\n\n    function getARICount(uint256 houseId) public view returns (uint256){\n        return houseArikeyMap[houseId].length;\n    }\n    \n    function createARIForHouseByRange(uint256 house_id, uint256 _from_date, uint256 _to_date, int256 _price) public validateUser returns (bytes32){\n        require(users[msg.sender] == accessor(1),\"403:Unauthorized\");\n        require(house_owner_map[house_id] != address(0),\"House not created\");\n        Range memory newRange;\n        newRange.from_date = _from_date;\n        newRange.to_date = _to_date;\n        newRange.price = _price;\n        newRange.available = true;\n        bytes32 rangeHash = sha256(abi.encode(_from_date,_to_date));\n        houseAriMap[house_id][rangeHash] = newRange;\n        houseArikeyMap[house_id].push(rangeHash);\n        return rangeHash;\n    }\n    \n    function blockARI(uint256 house_id,uint256 _from_date, uint256 _to_date) public validateUser returns(bytes32){\n        bytes32 rangeHash = sha256(abi.encode(_from_date,_to_date));\n        require(house_owner_map[house_id] != address(0),\"404:House not created\");\n        require(houseAriMap[house_id][rangeHash].from_date != 0,\"404:Range not found\");\n        require(houseAriMap[house_id][rangeHash].available != false,\"404:Range is not available\");\n        require(houseAriMap[house_id][rangeHash].block_timestamp < block.timestamp,\"410: Range is booked earlier.\");\n        houseAriMap[house_id][rangeHash].available = false;\n        houseAriMap[house_id][rangeHash].block_timestamp = block.timestamp;\n        houseAriMap[house_id][rangeHash].modifying_entity = msg.sender;\n        return rangeHash;\n        \n    }\n    \n    function releaseARI(uint256 house_id,uint256 _from_date, uint256 _to_date) public validateUser returns(bytes32){\n        bytes32 rangeHash = sha256(abi.encode(_from_date,_to_date));\n        require(house_owner_map[house_id] != address(0),\"404:House not created\");\n        require(houseAriMap[house_id][rangeHash].from_date != 0,\"404:Range not found\");\n        require(houseAriMap[house_id][rangeHash].available == false,\"404:Range is not blocked\");\n        require(houseAriMap[house_id][rangeHash].modifying_entity == msg.sender,\"403: Not your blocking to release!\");\n        houseAriMap[house_id][rangeHash].available = true;\n        houseAriMap[house_id][rangeHash].block_timestamp = 0;\n        houseAriMap[house_id][rangeHash].modifying_entity = address(0);\n        return rangeHash;\n        \n    }\n    \n}",
  "sourcePath": "/Users/anirudhdeep/Documents/workspace/blockchain-hotel-ari/contracts/ari_system.sol",
  "compiler": {
    "name": "solc",
    "version": "0.5.16+commit.9c3226ce.Emscripten.clang"
  },
  "schemaVersion": "3.4.1",
  "updatedAt": "2021-06-10T13:59:12.919Z",
  "devdoc": {
    "methods": {}
  },
  "userdoc": {
    "methods": {}
  }
}