{
  "contractName": "UserContract",
  "abi": [
    {
      "constant": true,
      "inputs": [
        {
          "internalType": "address",
          "name": "",
          "type": "address"
        }
      ],
      "name": "users",
      "outputs": [
        {
          "internalType": "enum UserContract.accessor",
          "name": "",
          "type": "uint8"
        }
      ],
      "payable": false,
      "stateMutability": "view",
      "type": "function"
    },
    {
      "constant": false,
      "inputs": [
        {
          "internalType": "enum UserContract.accessor",
          "name": "userType",
          "type": "uint8"
        }
      ],
      "name": "onboardUser",
      "outputs": [
        {
          "internalType": "enum UserContract.accessor",
          "name": "",
          "type": "uint8"
        }
      ],
      "payable": false,
      "stateMutability": "nonpayable",
      "type": "function"
    }
  ],
  "bytecode": "0x608060405234801561001057600080fd5b506102de806100206000396000f3fe608060405234801561001057600080fd5b50600436106100365760003560e01c8063a87430ba1461003b578063acdf8530146100a1575b600080fd5b61007d6004803603602081101561005157600080fd5b81019080803573ffffffffffffffffffffffffffffffffffffffff1690602001909291905050506100f4565b6040518082600281111561008d57fe5b60ff16815260200191505060405180910390f35b6100d0600480360360208110156100b757600080fd5b81019080803560ff169060200190929190505050610114565b604051808260028111156100e057fe5b60ff16815260200191505060405180910390f35b60006020528060005260406000206000915054906101000a900460ff1681565b600080600281111561012257fe5b600281111561012d57fe5b6000803373ffffffffffffffffffffffffffffffffffffffff1673ffffffffffffffffffffffffffffffffffffffff16815260200190815260200160002060009054906101000a900460ff16600281111561018457fe5b146101f7576040517f08c379a00000000000000000000000000000000000000000000000000000000081526004018080602001828103825260178152602001807f3430303a205573657220616c726561647920657869747300000000000000000081525060200191505060405180910390fd5b816000803373ffffffffffffffffffffffffffffffffffffffff1673ffffffffffffffffffffffffffffffffffffffff16815260200190815260200160002060006101000a81548160ff0219169083600281111561025157fe5b02179055506000803373ffffffffffffffffffffffffffffffffffffffff1673ffffffffffffffffffffffffffffffffffffffff16815260200190815260200160002060009054906101000a900460ff16905091905056fea265627a7a723158200bd2513d33764548f5abdd96569f64a3cabcfab78e5101a3275e0939b742e55e64736f6c63430005100032",
  "source": "// SPDX-License-Identifier: MIT\npragma solidity >=0.4.22 <0.9.0;\n\n\ncontract UserContract{\n    enum accessor { default_val,inventory_partner, ota_partner }\n    mapping (address => accessor) public users;\n    \n    modifier validateUser{\n        require(users[msg.sender] != accessor(0),\"403:Unauthorized\");\n        _;\n    }\n    \n    function onboardUser(accessor userType) public returns(accessor){\n        require(users[msg.sender] == accessor(0),\"400: User already exits\");\n        users[msg.sender] = userType;\n        return users[msg.sender];\n    }\n    \n}\n\ncontract HouseContract is UserContract{\n\n    mapping (uint256 => address) public house_owner_map;\n    \n    function createHouse(uint256 house_id) public validateUser returns (bool){\n        require(users[msg.sender] == accessor(1),\"403:Unauthorized\");\n        require(house_owner_map[house_id] == address(0),\"400: House already exists!\");\n        house_owner_map[house_id] = msg.sender;\n        return true;\n    }\n    \n    function deleteHouse(uint256 house_id) public validateUser returns (bool){\n        require(users[msg.sender] == accessor(1),\"403:Unauthorized\");\n        require(house_owner_map[house_id] != address(0),\"404: House not found!\");\n        house_owner_map[house_id] = address(0);\n    }\n    \n}\n\ncontract ARIContract is HouseContract{\n\n    constructor() public {\n      accessor choice = accessor.inventory_partner;\n      onboardUser(choice);\n      createHouse(1);\n      createARIForHouseByRange(1,1623064189,1623323389,256);\n   }\n    \n    struct Range{\n        uint256 from_date;\n        uint256 to_date;\n        int256 price;\n        bool available;\n        uint256 block_timestamp;\n        address modifying_entity;\n    }\n    \n    mapping(uint256 => mapping(bytes32 => Range)) public houseAriMap;\n    \n    //In order to fetch and display all ARI\n    mapping(uint256 => bytes32[]) public houseArikeyMap;\n\n    function getARICount(uint256 houseId) public view returns (uint256){\n        return houseArikeyMap[houseId].length;\n    }\n    \n    function createARIForHouseByRange(uint256 house_id, uint256 _from_date, uint256 _to_date, int256 _price) public validateUser returns (bytes32){\n        require(users[msg.sender] == accessor(1),\"403:Unauthorized\");\n        require(house_owner_map[house_id] != address(0),\"House not created\");\n        Range memory newRange;\n        newRange.from_date = _from_date;\n        newRange.to_date = _to_date;\n        newRange.price = _price;\n        newRange.available = true;\n        bytes32 rangeHash = sha256(abi.encode(_from_date,_to_date));\n        houseAriMap[house_id][rangeHash] = newRange;\n        houseArikeyMap[house_id].push(rangeHash);\n        return rangeHash;\n    }\n    \n    function blockARI(uint256 house_id,uint256 _from_date, uint256 _to_date) public validateUser returns(bytes32){\n        bytes32 rangeHash = sha256(abi.encode(_from_date,_to_date));\n        require(house_owner_map[house_id] != address(0),\"404:House not created\");\n        require(houseAriMap[house_id][rangeHash].from_date != 0,\"404:Range not found\");\n        require(houseAriMap[house_id][rangeHash].available != false,\"404:Range is not available\");\n        require(houseAriMap[house_id][rangeHash].block_timestamp < block.timestamp,\"410: Range is booked earlier.\");\n        houseAriMap[house_id][rangeHash].available = false;\n        houseAriMap[house_id][rangeHash].block_timestamp = block.timestamp;\n        houseAriMap[house_id][rangeHash].modifying_entity = msg.sender;\n        return rangeHash;\n        \n    }\n    \n    function releaseARI(uint256 house_id,uint256 _from_date, uint256 _to_date) public validateUser returns(bytes32){\n        bytes32 rangeHash = sha256(abi.encode(_from_date,_to_date));\n        require(house_owner_map[house_id] != address(0),\"404:House not created\");\n        require(houseAriMap[house_id][rangeHash].from_date != 0,\"404:Range not found\");\n        require(houseAriMap[house_id][rangeHash].available != true,\"404:Range is not blocked\");\n        require(houseAriMap[house_id][rangeHash].modifying_entity == msg.sender,\"403: Not your blocking to release!\");\n        houseAriMap[house_id][rangeHash].available = true;\n        houseAriMap[house_id][rangeHash].block_timestamp = 0;\n        houseAriMap[house_id][rangeHash].modifying_entity = address(0);\n        return rangeHash;\n        \n    }\n    \n}",
  "sourcePath": "/Users/anirudhdeep/Documents/workspace/blockchain-hotel-ari/contracts/ari_system.sol",
  "compiler": {
    "name": "solc",
    "version": "0.5.16+commit.9c3226ce.Emscripten.clang"
  },
  "schemaVersion": "3.4.1",
  "updatedAt": "2021-06-10T11:54:22.060Z",
  "devdoc": {
    "methods": {}
  },
  "userdoc": {
    "methods": {}
  }
}