{
  "contractName": "UserContract",
  "abi": [
    {
      "constant": true,
      "inputs": [
        {
          "name": "",
          "type": "address"
        }
      ],
      "name": "users",
      "outputs": [
        {
          "name": "",
          "type": "uint8"
        }
      ],
      "payable": false,
      "stateMutability": "view",
      "type": "function"
    },
    {
      "constant": false,
      "inputs": [
        {
          "name": "userType",
          "type": "uint8"
        }
      ],
      "name": "onboardUser",
      "outputs": [
        {
          "name": "",
          "type": "uint8"
        }
      ],
      "payable": false,
      "stateMutability": "nonpayable",
      "type": "function"
    }
  ],
  "bytecode": "0x608060405234801561001057600080fd5b50610307806100206000396000f3fe60806040526004361061004c576000357c0100000000000000000000000000000000000000000000000000000000900463ffffffff168063a87430ba14610051578063acdf8530146100c4575b600080fd5b34801561005d57600080fd5b506100a06004803603602081101561007457600080fd5b81019080803573ffffffffffffffffffffffffffffffffffffffff169060200190929190505050610124565b604051808260028111156100b057fe5b60ff16815260200191505060405180910390f35b3480156100d057600080fd5b50610100600480360360208110156100e757600080fd5b81019080803560ff169060200190929190505050610144565b6040518082600281111561011057fe5b60ff16815260200191505060405180910390f35b60006020528060005260406000206000915054906101000a900460ff1681565b600080600281111561015257fe5b600281111561015d57fe5b6000803373ffffffffffffffffffffffffffffffffffffffff1673ffffffffffffffffffffffffffffffffffffffff16815260200190815260200160002060009054906101000a900460ff1660028111156101b457fe5b141515610229576040517f08c379a00000000000000000000000000000000000000000000000000000000081526004018080602001828103825260178152602001807f3430303a205573657220616c726561647920657869747300000000000000000081525060200191505060405180910390fd5b816000803373ffffffffffffffffffffffffffffffffffffffff1673ffffffffffffffffffffffffffffffffffffffff16815260200190815260200160002060006101000a81548160ff0219169083600281111561028357fe5b02179055506000803373ffffffffffffffffffffffffffffffffffffffff1673ffffffffffffffffffffffffffffffffffffffff16815260200190815260200160002060009054906101000a900460ff16905091905056fea165627a7a7230582047bf059818a3219682ad033810864e8b53acf70d17c6bfa111b2b9176e6fdc990029",
  "source": "// SPDX-License-Identifier: MIT\npragma solidity >=0.4.22 <0.9.0;\n\n\ncontract UserContract{\n    enum accessor { default_val,inventory_partner, ota_partner }\n    mapping (address => accessor) public users;\n    \n    modifier validateUser{\n        require(users[msg.sender] != accessor(0),\"403:Unauthorized\");\n        _;\n    }\n    \n    function onboardUser(accessor userType) external returns(accessor){\n        require(users[msg.sender] == accessor(0),\"400: User already exits\");\n        users[msg.sender] = userType;\n        return users[msg.sender];\n    }\n    \n}\n\ncontract HouseContract is UserContract{\n\n    mapping (uint256 => address) public house_owner_map;\n    \n    function createHouse(uint256 house_id) public validateUser returns (bool){\n        require(users[msg.sender] == accessor(1),\"403:Unauthorized\");\n        require(house_owner_map[house_id] == address(0),\"400: House already exists!\");\n        house_owner_map[house_id] = msg.sender;\n        return true;\n    }\n    \n    function deleteHouse(uint256 house_id) public validateUser returns (bool){\n        require(users[msg.sender] == accessor(1),\"403:Unauthorized\");\n        require(house_owner_map[house_id] != address(0),\"404: House not found!\");\n        house_owner_map[house_id] = address(0);\n    }\n    \n}\n\ncontract ARIContract is HouseContract{\n    \n    struct Range{\n        uint256 from_date;\n        uint256 to_date;\n        int256 price;\n        bool available;\n        uint256 block_timestamp;\n        address modifying_entity;\n    }\n    \n    mapping(uint256 => mapping(bytes32 => Range)) public houseAriMap;\n    \n    //In order to fetch and display all ARI\n    mapping(uint256 => bytes32[]) public houseArikeyMap;\n    \n    function createARIForHouseByRange(uint256 house_id, uint256 _from_date, uint256 _to_date, int256 _price) public validateUser returns (bytes32){\n        require(users[msg.sender] == accessor(1),\"403:Unauthorized\");\n        require(house_owner_map[house_id] != address(0),\"House not created\");\n        Range memory newRange;\n        newRange.from_date = _from_date;\n        newRange.to_date = _to_date;\n        newRange.price = _price;\n        newRange.available = true;\n        bytes32 rangeHash = sha256(abi.encode(_from_date,_to_date));\n        houseAriMap[house_id][rangeHash] = newRange;\n        houseArikeyMap[house_id].push(rangeHash);\n        return rangeHash;\n    }\n    \n    function blockARI(uint256 house_id,uint256 _from_date, uint256 _to_date) public validateUser returns(bytes32){\n        bytes32 rangeHash = sha256(abi.encode(_from_date,_to_date));\n        require(house_owner_map[house_id] != address(0),\"404:House not created\");\n        require(houseAriMap[house_id][rangeHash].from_date != 0,\"404:Range not found\");\n        require(houseAriMap[house_id][rangeHash].available != false,\"404:Range is not available\");\n        require(houseAriMap[house_id][rangeHash].block_timestamp < block.timestamp,\"410: Range is booked earlier.\");\n        houseAriMap[house_id][rangeHash].available = false;\n        houseAriMap[house_id][rangeHash].block_timestamp = block.timestamp;\n        houseAriMap[house_id][rangeHash].modifying_entity = msg.sender;\n        return rangeHash;\n        \n    }\n    \n    function releaseARI(uint256 house_id,uint256 _from_date, uint256 _to_date) public validateUser returns(bytes32){\n        bytes32 rangeHash = sha256(abi.encode(_from_date,_to_date));\n        require(house_owner_map[house_id] != address(0),\"404:House not created\");\n        require(houseAriMap[house_id][rangeHash].from_date != 0,\"404:Range not found\");\n        require(houseAriMap[house_id][rangeHash].available != true,\"404:Range is not blocked\");\n        require(houseAriMap[house_id][rangeHash].modifying_entity == msg.sender,\"403: Not your blocking to release!\");\n        houseAriMap[house_id][rangeHash].available = true;\n        houseAriMap[house_id][rangeHash].block_timestamp = 0;\n        houseAriMap[house_id][rangeHash].modifying_entity = address(0);\n        return rangeHash;\n        \n    }\n    \n}",
  "sourcePath": "/Users/oyo/Documents/PersonalDev/blockchain-hotel-ari/contracts/ari_system.sol",
  "compiler": {
    "name": "solc",
    "version": "0.5.0+commit.1d4f565a.Emscripten.clang"
  },
  "schemaVersion": "3.0.1",
  "updatedAt": "2021-06-09T17:07:28.146Z",
  "devdoc": {
    "methods": {}
  },
  "userdoc": {
    "methods": {}
  }
}